:020000040800F2
:1000000018040020E10F0008950F0008970F000862
:10001000990F00089B0F00089D0F000800000000CA
:100020000000000000000000000000009F0F00081A
:10003000A10F000800000000A30F0008A50F000892
:10004000FD0F000801100008051000080910000845
:100050000D100008111000081510000819100008F4
:100060001D100008211000082510000829100008A4
:100070002D10000831100008351000083910000854
:100080003D10000841100008451000084910000804
:100090004D100008511000085510000859100008B4
:1000A0005D10000861100008651000086910000864
:1000B0006D10000871100008751000087910000814
:1000C0007D100008811000088510000889100008C4
:1000D0008D10000891100008951000089910000874
:1000E0009D100008A1100008A5100008A910000824
:1000F000AD100008B1100008B5100008B9100008D4
:10010000BD100008C1100008C5100008C910000883
:10011000CD100008D1100008D5100008D910000833
:10012000DD100008E1100008E5100008E9100008E3
:100130002DE9F843040016D02078DFF86864C10781
:1001400013D5706800F00C00042807D0706800F028
:100150000C00082840D17068C1033DD53168880380
:1001600003D56068002800F0F6802178DFF840743D
:10017000880719D5706810F00C0F07D0706800F070
:100180000C00082862D17068C1035FD43168880709
:1001900003D52069012840F0DE803168606921F0D4
:1001A000F80141EAC00131602178080772D5A069E1
:1001B000DFF80014002867D001220A6000F012FA6C
:1001C0000546706A810700F1C88000F00BFA401BF9
:1001D0000228F6D9032037E16068B0F5803F0FD0E0
:1001E00038B9316821F480313160306820F48020E2
:1001F00009E0B0F5A02F316807D141F480213160CA
:10020000306840F48030306006E021F480313160A5
:10021000326822F480223260606858B100F0E2F95E
:10022000054631688803A0D400F0DCF9401B65283E
:10023000F7D3CFE700F0D6F905463068810394D5AF
:1002400000F0D0F9401B6528F7D3C3E7206970B1EF
:100250000121396000F0C6F905463068810700F1D8
:10026000B68000F0BFF9401B0228F6D9B2E738602B
:1002700000F0B8F905463068810795D500F0B2F96D
:10028000401B0228F7D9A5E7086000F0ABF9054646
:10029000706A810770D500F0A5F9401B0228F7D9D4
:1002A00098E708B9306A09E00528306A06D140F0BD
:1002B00004003062306A40F0010005E04008400070
:1002C0003062306A20F00400306241F28938E06820
:1002D00068B100F087F98146306A810700F18480B7
:1002E00000F080F9A0EB09004045F5D372E700F07B
:1002F00079F98146306A810776D500F073F9A0EB71
:1003000009004045F6D365E700F06CF9401B022870
:100310007BD95FE700F066F9001B022840F28F806E
:1003200058E700F093F804463068810140F18B8073
:1003300000F058F9001B0228F6D94BE701280AD033
:100340007068226A00F48031914202BF00F470109C
:10035000616A884277D0012076E0DFF84C020168BC
:10036000C9084FF47A72B1FBF2F2009200BF009814
:10037000411E00280091F9D12078410739D5F06954
:100380000025C10009D4F06940F08050F0610125DA
:10039000F06900F0805000900098DFF81C82D8F8D7
:1003A0000010C8051BD4D8F8000040F48070C8F8CD
:1003B000000000F017F98146D8F80010C8050ED4E7
:1003C00000F010F9A0EB09006528F5D302E73068CA
:1003D000616920F0F80040EAC1003060E4E6E068BE
:1003E00001287FF45EAF65E71DB1F06920F0805011
:1003F000F061E06938B3716801F00C0108299DD003
:1004000002288ED100F022F80546306881013FF5C0
:100410007BAF206AB0F5803F05D17168A06821F4F8
:100420000031014371607168206A21F47411014345
:10043000606A01437160012000F009F804463068E9
:1004400081017FF567AF0020BDE8F28300203866A8
:1004500000F0C8B82DE9F8430400884673D0574E21
:10046000306800F00700404502D200F072F86AD10F
:1004700020684C4D810712D5400703D5686840F4C9
:10048000E06068602178080703D5686840F4605030
:1004900068606968A06821F0F00101436960207814
:1004A000C10748D56068012802D129688A0303E0A2
:1004B000022803D129688A0103D444E02A689107FD
:1004C00041D56968890840EA8100686041F289394C
:1004D00000F088F807466868616800F00C00B0EB2F
:1004E000810F28D000F07EF8C01B4845F3D30320CD
:1004F0001FE02078410705D56968E06821F4E061D4
:10050000014369602078010706D56868216920F4F5
:10051000605040EAC100686000F026F86A68284927
:10052000C2F30312895C204AC840106000F00DF845
:100530000020BDE8F283306800F007008045D8D283
:1005400000F007F8D5D00120F3E71E48006800F05E
:100550004FB83168C90848EAC1013160306800F01D
:100560000700404570470000174910480A6802F02C
:100570000C03082B00D0704710B500BF14A4C2F3C1
:100580008343D203E35C09D5096800BF14A2C1F319
:1005900040415843515CB0FBF1F010BD18460B4987
:1005A000484310BD001002401000002000127A00E5
:1005B000000042428004424200700040002002409D
:1005C000BC0F00080C0000200410024000093D0090
:1005D00002030405060708090A0B0C0D0E0F101084
:1005E0000102000001484068704700BF040000207D
:1005F00038B50D4D0D4A297804464FF47A70B0FB9A
:10060000F1F11068B0FBF1F000F04BF850B9102C8C
:1006100008D2002221464FF0FF3000F025F8AC60F0
:10062000002032BD012032BD040000201000002057
:100630000901020081B002D42448815405E0244815
:1006400002F00F02104400F8041C01B07047214A68
:1006500013684FF6FF0100020B4000F4E0601843FE
:100660001D4908431060704738B51A4B1C68C4F325
:100670000223C3F10704052C28BF04241D1D072DE8
:1006800034BF0023DB1E012505FA04F4641E21405B
:10069000994005FA03F35B1E1A401143BDE834404C
:1006A000C6E710B5401EB0F1807F01D3012010BD18
:1006B0000A4C60600F214FF0FF30FFF7B9FF0022B6
:1006C000A26007202060002010BD000000E400E0D0
:1006D00018ED00E00CED00E00000FA0510E000E08D
:1006E0005E480168491E042900D9704780B5DFE8DB
:1006F00001F0030D17212E0000F085FA82A000F012
:1007000053FA00F027F800BF82A01CE000F07BFA4B
:1007100083A000F049FA00F01DF800BF83A012E0AA
:1007200000F071FA84A000F03FFA00F013F800BF67
:1007300084A008E000F067FA85A000F035FA00F028
:1007400009F800BF85A0BDE8024000F02DBA0121E4
:10075000016001BD0121002000F03ABA3F48016864
:10076000491E032907D8DFE801F002030405A9E0C8
:10077000AEE0BBE0C0E0704730B585B000F04EFAA7
:1007800000F079F86846102100F05AFA3448354CE8
:100790000168324D41F010010160026802F0100260
:1007A000049200220499016841F0080101607F2150
:1007B000006800F0080004900498204600F01EFB3A
:1007C0007F200121009001910020022102900391DD
:1007D0002046694600F038FA4FF4C05000210090DE
:1007E000019102916946204C204600F02DFA00F05C
:1007F000CEF900F008FA00BF5BA000F0D5F940F692
:10080000B83000F01FFB00F0FEF9FFF769FF00F0C1
:100810002DF801280ED12868401C052808BF0120AA
:100820002860FFF75DFF642000F00CFB00F01EF86D
:100830000028FBD14FF4805100F01AF80128E6D1CE
:10084000FFF78CFFFFF74CFF642000F0FBFA4FF43A
:10085000805100F00DF80028F9D1D8E70000002001
:100860001810024000100140000C01404FF40061DC
:10087000204600F0BDBA00B58FB005A8282100F0D1
:10088000DFF96846142100F0DBF902200590012110
:10089000099110200A9000210C9105A8FFF748FC4F
:1008A00008B100F02FF80F20009000210191029173
:1008B000039104916846FFF7CDFD08B100F022F8DE
:1008C0000FB000BD80B500F09EF900BF29A004E084
:1008D00080B500F098F900BF2AA000F065F9BDE8E6
:1008E000024040F2DC5000F0ADBA000080B500F0EC
:1008F0008AF900BF27A0F0E780B500F084F900BFB7
:1009000028A0EAE772B6FEE73E3E4D656E75497473
:10091000656D31004D656E756974656D320000005E
:100920004D656E754974656D310000003E3E4D6544
:100930006E756974656D32003E3E4D656E75497425
:10094000656D33004D656E756974656D340000002A
:100950004D656E754974656D330000003E3E4D6512
:100960006E756974656D34006D656E75206E6F6FA0
:10097000622031003E3E457865637574696E67207C
:10098000233100003E3E457865637574696E6720CB
:10099000233200003E3E457865637574696E6720BA
:1009A000233300003E3E457865637574696E6720A9
:1009B000233400002DE9F84F00F002F90022012154
:1009C00000F0E2F80022022100F0DEF8012204210A
:1009D00000F0DAF800F0D6F80022102100F0D4F888
:1009E0000022202100F0D0F80022402100F0CCF8B5
:1009F00000F0B8F802D1012200F0C5F8202D03D193
:100A00000122102100F0C0F8402E03D10122202144
:100A100000F0BAF8802F03D10122402100F0B4F891
:100A20000022042100F0B0F80122042100F0ACF80B
:100A300000F0A8F80022102100F0A6F800222021E2
:100A400000F0A2F80022402100F09EF8E00702D555
:100A5000012200F098F8B8F1020F03D10122102111
:100A600000F092F8B9F1040F03D10122202100F027
:100A70008BF8BAF1080F03D10122402100F084F86D
:100A800069E02DE9F84F00F09BF80122012100F008
:100A90007BF80022022100F077F80122042100F007
:100AA00073F800F06FF80022102100F06DF80022BA
:100AB000202100F069F80022402100F065F800F0E4
:100AC00051F802D1012200F05EF8202D03D101225D
:100AD000102100F059F8402E03D10122202100F00E
:100AE00053F8802F03D10122402100F04DF800225D
:100AF000042100F049F80122042100F045F800F03B
:100B000041F80022102100F03FF80022202100F0DF
:100B10003BF80022402100F037F8E00702D501221F
:100B200000F031F8B8F1020F03D10122102100F0DA
:100B30002BF8B9F1040F03D10122202100F024F891
:100B4000BAF1080F03D10122402100F01DF8002264
:100B5000042100F019F85846BDE8F84F002204219E
:100B600000F04CB9C4F30010012804F0200504F093
:100B7000400604F0800704F0020804F0040904F0C1
:100B8000080A704700220821584600F037B980B59E
:100B900000F019F82820FFF70DFF0620FFF70AFFE5
:100BA000BDE802400C2005E710B500F00BF803E0AB
:100BB00014F8010BFFF765FF20780028F8D110BD6D
:100BC000DFF808B00446012000F03CB900100140F5
:100BD00038B504460D46FFF7F6FF032D12D8DFE8BF
:100BE00005F00205080BA4F1800007E0A4F1400025
:100BF00004E0A4F16C0001E0A4F12C00BDE8324057
:100C0000C0B2D7E631BD80B5FFF7DDFF0120FFF7A9
:100C1000D1FEBDE802400220CCE6000080B50748C6
:100C2000016841F0100101600320FFF710FD0F2063
:100C3000FFF7DEFC00F01AF9002002BD00200240A0
:100C4000002200F035B900002DE9F84F00240025FE
:100C50006D4A6E4BDFF8B8814FF00F094FF0010A73
:100C600083468E460CE011680840106007E056602D
:100C7000DEF80460F603F6D5106801431160641CC9
:100C8000DEF8001031FA04F000F0B0800AFA04F740
:100C90003940B942F3D1DEF8040058B301281AD024
:100CA00002281FD0032833D0112817D012281DD0B6
:100CB000584EB0421CBF584EB0421BD0574EB042A7
:100CC0001CBF574EB04215D0564EB0421CBF564EB8
:100CD000B0420FD01DE0DEF80C501AE0DEF80C50E8
:100CE0002D1D16E0DEF80C50083512E0DEF80C5031
:100CF0000C350EE0DEF8080008B9042509E00128EB
:100D000019BF0825CBF814700825CBF8107000E047
:100D10000025B1F5807F03D258464FEA840C05E0E8
:100D2000A4F108060BF104004FEA860C066809FAE4
:100D30000CF7BE4305FA0CF73E430660DEF80400EC
:100D4000C0009CD5D8F8000040F00100C8F80000B1
:100D5000A600D8F8000000F00100009006F00C0C8E
:100D60000098A00853F8207009FA0CF627EA060646
:100D70002E4FBB4508BF002718D02D4FBB4508BFDD
:100D8000012713D02B4FBB4508BF02270ED02A4F97
:100D9000BB4508BF032709D0284FBB4508BF042720
:100DA00004D0274FBB450CBF0527062707FA0CF7D1
:100DB0003E4343F82060C843DEF80460F6029668BC
:100DC0004CBF0E4306409660DEF80460B602D6685B
:100DD0004CBF0E430640D660DEF804605768B60389
:100DE0004CBF41EA070600EA070640E7BDE8F18F7D
:100DF0008068084018BF0120C0B2704781B002B9B6
:100E00000904016101B0704700040140080001407D
:100E100018100240000011100000121000002110F4
:100E200000002210000031100000321000080140C4
:100E3000000C014000100140001401400018014066
:100E4000001C014038B50446FFF7CCFB14F1010F3C
:100E5000054602D0044908780419FFF7C3FB401B7C
:100E6000A042FAD331BD00BF040000200E4881B07B
:100E7000016841F001010160026802F00102009284
:100E80000099416841F080514160406800F0805015
:100E9000009000980548016821F0E06141F0806110
:100EA000016001B0704700BF18100240040001400B
:100EB00000B500BF130096469446103928BFA0E83D
:100EC0000C50FAD85FEA417C28BF0CC048BF40F8FC
:100ED000042BC90728BF20F8022B48BF00F8012BBC
:100EE00000BD10B450F8041B79B102684368024495
:100EF0000830DC0744BFA9F10104E31852F8044BA1
:100F000043F8044B091FF9D1ECE710BC704700000F
:100F100010B5074979441831064C7C44163404E076
:100F20000A68081D114488470146A142F8D110BD46
:100F30000800000018000000ABFFFFFF14000000D5
:100F40008C000000000000200000000000F00DF800
:100F5000002801D0FFF7DCFFAFF300800020AFF3E3
:100F60000080FFF709FC00F002F80120704700F054
:100F700001B800000746384600F002F8FBE7000021
:100F800080B5AFF30080024A11001820ABBEFBE72A
:100F900026000200FEE7FEE7FEE7FEE7FEE77047F9
:100FA0007047704700F000B802494A680878821814
:100FB0004A607047040000207047000000000000F5
:100FC00000000000010203040607080901000000F8
:100FD0000100000000000000100000000024F400E8
:100FE0000148804701480047B90F0008F10F000889
:100FF000AFF30080AFF30080FFF7A8FFFFF7FEBF5D
:10100000FFF7FEBFFFF7FEBFFFF7FEBFFFF7FEBF14
:10101000FFF7FEBFFFF7FEBFFFF7FEBFFFF7FEBF04
:10102000FFF7FEBFFFF7FEBFFFF7FEBFFFF7FEBFF4
:10103000FFF7FEBFFFF7FEBFFFF7FEBFFFF7FEBFE4
:10104000FFF7FEBFFFF7FEBFFFF7FEBFFFF7FEBFD4
:10105000FFF7FEBFFFF7FEBFFFF7FEBFFFF7FEBFC4
:10106000FFF7FEBFFFF7FEBFFFF7FEBFFFF7FEBFB4
:10107000FFF7FEBFFFF7FEBFFFF7FEBFFFF7FEBFA4
:10108000FFF7FEBFFFF7FEBFFFF7FEBFFFF7FEBF94
:10109000FFF7FEBFFFF7FEBFFFF7FEBFFFF7FEBF84
:1010A000FFF7FEBFFFF7FEBFFFF7FEBFFFF7FEBF74
:1010B000FFF7FEBFFFF7FEBFFFF7FEBFFFF7FEBF64
:1010C000FFF7FEBFFFF7FEBFFFF7FEBFFFF7FEBF54
:1010D000FFF7FEBFFFF7FEBFFFF7FEBFFFF7FEBF44
:0C10E000FFF7FEBFFFF7FEBFFFF7FEBFEB
:0400000508000FF1EF
:00000001FF
